{
  "contractName": "TaskContract",
  "abi": [
    {
      "anonymous": false,
      "inputs": [
        {
          "indexed": false,
          "internalType": "address",
          "name": "recipient",
          "type": "address"
        },
        {
          "indexed": false,
          "internalType": "uint256",
          "name": "taskId",
          "type": "uint256"
        }
      ],
      "name": "AddTask",
      "type": "event"
    },
    {
      "anonymous": false,
      "inputs": [
        {
          "indexed": false,
          "internalType": "uint256",
          "name": "taskId",
          "type": "uint256"
        },
        {
          "indexed": false,
          "internalType": "bool",
          "name": "isDeleted",
          "type": "bool"
        }
      ],
      "name": "DeleteTask",
      "type": "event"
    },
    {
      "inputs": [
        {
          "internalType": "string",
          "name": "taskText",
          "type": "string"
        },
        {
          "internalType": "bool",
          "name": "isDeleted",
          "type": "bool"
        }
      ],
      "name": "addTask",
      "outputs": [],
      "stateMutability": "nonpayable",
      "type": "function"
    },
    {
      "inputs": [],
      "name": "getMyTasks",
      "outputs": [
        {
          "components": [
            {
              "internalType": "uint256",
              "name": "id",
              "type": "uint256"
            },
            {
              "internalType": "address",
              "name": "username",
              "type": "address"
            },
            {
              "internalType": "string",
              "name": "taskText",
              "type": "string"
            },
            {
              "internalType": "bool",
              "name": "isDeleted",
              "type": "bool"
            }
          ],
          "internalType": "struct TaskContract.Task[]",
          "name": "",
          "type": "tuple[]"
        }
      ],
      "stateMutability": "view",
      "type": "function"
    },
    {
      "inputs": [
        {
          "internalType": "uint256",
          "name": "taskId",
          "type": "uint256"
        },
        {
          "internalType": "bool",
          "name": "isDeleted",
          "type": "bool"
        }
      ],
      "name": "deleteTask",
      "outputs": [],
      "stateMutability": "nonpayable",
      "type": "function"
    }
  ],
  "bytecode": "0x608060405234801561001057600080fd5b50610f5a806100206000396000f3fe608060405234801561001057600080fd5b50600436106100415760003560e01c806320df4581146100465780636e13f81814610062578063aaba290714610080575b600080fd5b610060600480360381019061005b9190610821565b61009c565b005b61006a610222565b6040516100779190610a93565b60405180910390f35b61009a60048036038101906100959190610ae1565b61056e565b005b600080805490509050600060405180608001604052808381526020013373ffffffffffffffffffffffffffffffffffffffff16815260200185815260200184151581525090806001815401808255809150506001900390600052602060002090600402016000909190919091506000820151816000015560208201518160010160006101000a81548173ffffffffffffffffffffffffffffffffffffffff021916908373ffffffffffffffffffffffffffffffffffffffff160217905550604082015181600201908161016f9190610d2d565b5060608201518160030160006101000a81548160ff0219169083151502179055505050336001600083815260200190815260200160002060006101000a81548173ffffffffffffffffffffffffffffffffffffffff021916908373ffffffffffffffffffffffffffffffffffffffff1602179055507f1f54e1ba1832d428fbd7e7792beaf62b1fc5a382c207ffd614209c1413e94fda3382604051610215929190610e1d565b60405180910390a1505050565b60606000808054905067ffffffffffffffff811115610244576102436106be565b5b60405190808252806020026020018201604052801561027d57816020015b61026a61064f565b8152602001906001900390816102625790505b5090506000805b6000805490508110156104b4573373ffffffffffffffffffffffffffffffffffffffff166001600083815260200190815260200160002060009054906101000a900473ffffffffffffffffffffffffffffffffffffffff1673ffffffffffffffffffffffffffffffffffffffff161480156103355750600015156000828154811061031257610311610e46565b5b906000526020600020906004020160030160009054906101000a900460ff161515145b156104a1576000818154811061034e5761034d610e46565b5b9060005260206000209060040201604051806080016040529081600082015481526020016001820160009054906101000a900473ffffffffffffffffffffffffffffffffffffffff1673ffffffffffffffffffffffffffffffffffffffff1673ffffffffffffffffffffffffffffffffffffffff1681526020016002820180546103d790610b50565b80601f016020809104026020016040519081016040528092919081815260200182805461040390610b50565b80156104505780601f1061042557610100808354040283529160200191610450565b820191906000526020600020905b81548152906001019060200180831161043357829003601f168201915b505050505081526020016003820160009054906101000a900460ff16151515158152505083838151811061048757610486610e46565b5b6020026020010181905250818061049d90610ea4565b9250505b80806104ac90610ea4565b915050610284565b5060008167ffffffffffffffff8111156104d1576104d06106be565b5b60405190808252806020026020018201604052801561050a57816020015b6104f761064f565b8152602001906001900390816104ef5790505b50905060005b828110156105645783818151811061052b5761052a610e46565b5b602002602001015182828151811061054657610545610e46565b5b6020026020010181905250808061055c90610ea4565b915050610510565b5080935050505090565b3373ffffffffffffffffffffffffffffffffffffffff166001600084815260200190815260200160002060009054906101000a900473ffffffffffffffffffffffffffffffffffffffff1673ffffffffffffffffffffffffffffffffffffffff160361064b5780600083815481106105e9576105e8610e46565b5b906000526020600020906004020160030160006101000a81548160ff0219169083151502179055507ff88a35c3d2016c409a46570b994a17b408dbc83c14a03f521512d50b85386d068282604051610642929190610efb565b60405180910390a15b5050565b604051806080016040528060008152602001600073ffffffffffffffffffffffffffffffffffffffff168152602001606081526020016000151581525090565b6000604051905090565b600080fd5b600080fd5b600080fd5b600080fd5b6000601f19601f8301169050919050565b7f4e487b7100000000000000000000000000000000000000000000000000000000600052604160045260246000fd5b6106f6826106ad565b810181811067ffffffffffffffff82111715610715576107146106be565b5b80604052505050565b600061072861068f565b905061073482826106ed565b919050565b600067ffffffffffffffff821115610754576107536106be565b5b61075d826106ad565b9050602081019050919050565b82818337600083830152505050565b600061078c61078784610739565b61071e565b9050828152602081018484840111156107a8576107a76106a8565b5b6107b384828561076a565b509392505050565b600082601f8301126107d0576107cf6106a3565b5b81356107e0848260208601610779565b91505092915050565b60008115159050919050565b6107fe816107e9565b811461080957600080fd5b50565b60008135905061081b816107f5565b92915050565b6000806040838503121561083857610837610699565b5b600083013567ffffffffffffffff8111156108565761085561069e565b5b610862858286016107bb565b92505060206108738582860161080c565b9150509250929050565b600081519050919050565b600082825260208201905092915050565b6000819050602082019050919050565b6000819050919050565b6108bc816108a9565b82525050565b600073ffffffffffffffffffffffffffffffffffffffff82169050919050565b60006108ed826108c2565b9050919050565b6108fd816108e2565b82525050565b600081519050919050565b600082825260208201905092915050565b60005b8381101561093d578082015181840152602081019050610922565b8381111561094c576000848401525b50505050565b600061095d82610903565b610967818561090e565b935061097781856020860161091f565b610980816106ad565b840191505092915050565b610994816107e9565b82525050565b60006080830160008301516109b260008601826108b3565b5060208301516109c560208601826108f4565b50604083015184820360408601526109dd8282610952565b91505060608301516109f2606086018261098b565b508091505092915050565b6000610a09838361099a565b905092915050565b6000602082019050919050565b6000610a298261087d565b610a338185610888565b935083602082028501610a4585610899565b8060005b85811015610a815784840389528151610a6285826109fd565b9450610a6d83610a11565b925060208a01995050600181019050610a49565b50829750879550505050505092915050565b60006020820190508181036000830152610aad8184610a1e565b905092915050565b610abe816108a9565b8114610ac957600080fd5b50565b600081359050610adb81610ab5565b92915050565b60008060408385031215610af857610af7610699565b5b6000610b0685828601610acc565b9250506020610b178582860161080c565b9150509250929050565b7f4e487b7100000000000000000000000000000000000000000000000000000000600052602260045260246000fd5b60006002820490506001821680610b6857607f821691505b602082108103610b7b57610b7a610b21565b5b50919050565b60008190508160005260206000209050919050565b60006020601f8301049050919050565b600082821b905092915050565b600060088302610be37fffffffffffffffffffffffffffffffffffffffffffffffffffffffffffffffff82610ba6565b610bed8683610ba6565b95508019841693508086168417925050509392505050565b6000819050919050565b6000610c2a610c25610c20846108a9565b610c05565b6108a9565b9050919050565b6000819050919050565b610c4483610c0f565b610c58610c5082610c31565b848454610bb3565b825550505050565b600090565b610c6d610c60565b610c78818484610c3b565b505050565b5b81811015610c9c57610c91600082610c65565b600181019050610c7e565b5050565b601f821115610ce157610cb281610b81565b610cbb84610b96565b81016020851015610cca578190505b610cde610cd685610b96565b830182610c7d565b50505b505050565b600082821c905092915050565b6000610d0460001984600802610ce6565b1980831691505092915050565b6000610d1d8383610cf3565b9150826002028217905092915050565b610d3682610903565b67ffffffffffffffff811115610d4f57610d4e6106be565b5b610d598254610b50565b610d64828285610ca0565b600060209050601f831160018114610d975760008415610d85578287015190505b610d8f8582610d11565b865550610df7565b601f198416610da586610b81565b60005b82811015610dcd57848901518255600182019150602085019450602081019050610da8565b86831015610dea5784890151610de6601f891682610cf3565b8355505b6001600288020188555050505b505050505050565b610e08816108e2565b82525050565b610e17816108a9565b82525050565b6000604082019050610e326000830185610dff565b610e3f6020830184610e0e565b9392505050565b7f4e487b7100000000000000000000000000000000000000000000000000000000600052603260045260246000fd5b7f4e487b7100000000000000000000000000000000000000000000000000000000600052601160045260246000fd5b6000610eaf826108a9565b91507fffffffffffffffffffffffffffffffffffffffffffffffffffffffffffffffff8203610ee157610ee0610e75565b5b600182019050919050565b610ef5816107e9565b82525050565b6000604082019050610f106000830185610e0e565b610f1d6020830184610eec565b939250505056fea264697066735822122018253f9c2827d879164077b51e0c20f355a6e5d489e031adbeb79c5d1e7c435864736f6c634300080f0033",
  "immutableReferences": {},
  "source": "// SPDX-License-Identifier: GPL-3.0\n\npragma solidity >=0.8.4;\n\n/**\n * @title Twitter Contract\n * @dev Store & retrieve value in a variable\n */\ncontract TaskContract {\n    event AddTask(address recipient, uint256 taskId);\n    event DeleteTask(uint256 taskId, bool isDeleted);\n\n    struct Task {\n        uint256 id;\n        address username;\n        string taskText;\n        bool isDeleted;\n    }\n\n    Task[] private tasks;\n\n    // Mapping of Task id to the wallet address of the user\n    mapping(uint256 => address) taskToOwner;\n\n    // Method to be called by our frontend when trying to add a new Task\n    function addTask(string memory taskText, bool isDeleted) external {\n        uint256 taskId = tasks.length;\n        tasks.push(Task(taskId, msg.sender, taskText, isDeleted));\n        taskToOwner[taskId] = msg.sender;\n        emit AddTask(msg.sender, taskId);\n    }\n\n    // Method to get only your Tasks\n    function getMyTasks() external view returns (Task[] memory) {\n        Task[] memory temporary = new Task[](tasks.length);\n        uint256 counter = 0;\n        for (uint256 i = 0; i < tasks.length; i++) {\n            if (taskToOwner[i] == msg.sender && tasks[i].isDeleted == false) {\n                temporary[counter] = tasks[i];\n                counter++;\n            }\n        }\n\n        Task[] memory result = new Task[](counter);\n        for (uint256 i = 0; i < counter; i++) {\n            result[i] = temporary[i];\n        }\n        return result;\n    }\n\n    // Method to Delete a Task\n    function deleteTask(uint256 taskId, bool isDeleted) external {\n        if (taskToOwner[taskId] == msg.sender) {\n            tasks[taskId].isDeleted = isDeleted;\n            emit DeleteTask(taskId, isDeleted);\n        }\n    }\n}\n",
  "sourcePath": "/Users/parshantsingh/projects/eth-todo/contracts/TaskContract.sol",
  "compiler": {
    "name": "solc",
    "version": "0.8.15+commit.e14f2714.Emscripten.clang"
  },
  "schemaVersion": "3.4.6",
  "updatedAt": "2022-06-28T13:56:51.369Z",
  "devdoc": {
    "details": "Store & retrieve value in a variable",
    "kind": "dev",
    "methods": {},
    "title": "Twitter Contract",
    "version": 1
  },
  "userdoc": {
    "kind": "user",
    "methods": {},
    "version": 1
  }
}