{
  "contractName": "ToDo",
  "abi": [
    {
      "inputs": [],
      "name": "id",
      "outputs": [
        {
          "internalType": "uint256",
          "name": "",
          "type": "uint256"
        }
      ],
      "stateMutability": "view",
      "type": "function",
      "constant": true
    },
    {
      "inputs": [],
      "name": "owner",
      "outputs": [
        {
          "internalType": "address",
          "name": "",
          "type": "address"
        }
      ],
      "stateMutability": "view",
      "type": "function",
      "constant": true
    },
    {
      "inputs": [
        {
          "internalType": "uint256",
          "name": "idx",
          "type": "uint256"
        }
      ],
      "name": "setCompleted",
      "outputs": [],
      "stateMutability": "nonpayable",
      "type": "function"
    },
    {
      "inputs": [
        {
          "internalType": "string",
          "name": "taskDesciption",
          "type": "string"
        }
      ],
      "name": "addTask",
      "outputs": [],
      "stateMutability": "nonpayable",
      "type": "function"
    }
  ],
  "bytecode": "0x6080604052336000806101000a81548173ffffffffffffffffffffffffffffffffffffffff021916908373ffffffffffffffffffffffffffffffffffffffff1602179055506001805534801561005457600080fd5b506107c4806100646000396000f3fe608060405234801561001057600080fd5b506004361061004c5760003560e01c806367238562146100515780638da5cb5b1461006d578063af640d0f1461008b578063fdacd576146100a9575b600080fd5b61006b600480360381019061006691906102fc565b6100c5565b005b610075610146565b6040516100829190610386565b60405180910390f35b61009361016a565b6040516100a091906103ba565b60405180910390f35b6100c360048036038101906100be9190610401565b610170565b005b60405180604001604052808281526020016000151581525060026000600154815260200190815260200160002060008201518160000190816101079190610645565b5060208201518160010160006101000a81548160ff0219169083151502179055509050506001600081548092919061013e90610746565b919050555050565b60008054906101000a900473ffffffffffffffffffffffffffffffffffffffff1681565b60015481565b60016002600083815260200190815260200160002060010160006101000a81548160ff02191690831515021790555050565b6000604051905090565b600080fd5b600080fd5b600080fd5b600080fd5b6000601f19601f8301169050919050565b7f4e487b7100000000000000000000000000000000000000000000000000000000600052604160045260246000fd5b610209826101c0565b810181811067ffffffffffffffff82111715610228576102276101d1565b5b80604052505050565b600061023b6101a2565b90506102478282610200565b919050565b600067ffffffffffffffff821115610267576102666101d1565b5b610270826101c0565b9050602081019050919050565b82818337600083830152505050565b600061029f61029a8461024c565b610231565b9050828152602081018484840111156102bb576102ba6101bb565b5b6102c684828561027d565b509392505050565b600082601f8301126102e3576102e26101b6565b5b81356102f384826020860161028c565b91505092915050565b600060208284031215610312576103116101ac565b5b600082013567ffffffffffffffff8111156103305761032f6101b1565b5b61033c848285016102ce565b91505092915050565b600073ffffffffffffffffffffffffffffffffffffffff82169050919050565b600061037082610345565b9050919050565b61038081610365565b82525050565b600060208201905061039b6000830184610377565b92915050565b6000819050919050565b6103b4816103a1565b82525050565b60006020820190506103cf60008301846103ab565b92915050565b6103de816103a1565b81146103e957600080fd5b50565b6000813590506103fb816103d5565b92915050565b600060208284031215610417576104166101ac565b5b6000610425848285016103ec565b91505092915050565b600081519050919050565b7f4e487b7100000000000000000000000000000000000000000000000000000000600052602260045260246000fd5b6000600282049050600182168061048057607f821691505b60208210810361049357610492610439565b5b50919050565b60008190508160005260206000209050919050565b60006020601f8301049050919050565b600082821b905092915050565b6000600883026104fb7fffffffffffffffffffffffffffffffffffffffffffffffffffffffffffffffff826104be565b61050586836104be565b95508019841693508086168417925050509392505050565b6000819050919050565b600061054261053d610538846103a1565b61051d565b6103a1565b9050919050565b6000819050919050565b61055c83610527565b61057061056882610549565b8484546104cb565b825550505050565b600090565b610585610578565b610590818484610553565b505050565b5b818110156105b4576105a960008261057d565b600181019050610596565b5050565b601f8211156105f9576105ca81610499565b6105d3846104ae565b810160208510156105e2578190505b6105f66105ee856104ae565b830182610595565b50505b505050565b600082821c905092915050565b600061061c600019846008026105fe565b1980831691505092915050565b6000610635838361060b565b9150826002028217905092915050565b61064e8261042e565b67ffffffffffffffff811115610667576106666101d1565b5b6106718254610468565b61067c8282856105b8565b600060209050601f8311600181146106af576000841561069d578287015190505b6106a78582610629565b86555061070f565b601f1984166106bd86610499565b60005b828110156106e5578489015182556001820191506020850194506020810190506106c0565b8683101561070257848901516106fe601f89168261060b565b8355505b6001600288020188555050505b505050505050565b7f4e487b7100000000000000000000000000000000000000000000000000000000600052601160045260246000fd5b6000610751826103a1565b91507fffffffffffffffffffffffffffffffffffffffffffffffffffffffffffffffff820361078357610782610717565b5b60018201905091905056fea2646970667358221220c130f96b8d0a7af8a5b49880c8b97247ea5e05f5d8d2c916e4a96178d61d163064736f6c634300080f0033",
  "immutableReferences": {},
  "source": "// SPDX-License-Identifier: MIT\npragma solidity >=0.4.22 <0.9.0;\n\ncontract ToDo {\n    address public owner = msg.sender;\n    uint256 public id = 1;\n\n    struct ToDoStruct {\n        string taskDesciption;\n        bool completed;\n    }\n    mapping(uint256 => ToDoStruct) toDoTasks;\n\n    function setCompleted(uint256 idx) public {\n        toDoTasks[idx].completed = true;\n    }\n\n    function addTask(string memory taskDesciption) public {\n        toDoTasks[id] = ToDoStruct(taskDesciption, false);\n        id++;\n    }\n}\n",
  "sourcePath": "/Users/parshantsingh/projects/eth-todo/contracts/ToDo.sol",
  "compiler": {
    "name": "solc",
    "version": "0.8.15+commit.e14f2714.Emscripten.clang"
  },
  "schemaVersion": "3.4.6",
  "updatedAt": "2022-06-27T22:49:50.473Z",
  "networkType": "ethereum",
  "devdoc": {
    "kind": "dev",
    "methods": {},
    "version": 1
  },
  "userdoc": {
    "kind": "user",
    "methods": {},
    "version": 1
  }
}